:100000000C9446000C9465000C9465000C946500FB
:100010000C9465000C9465000C9465000C946500CC
:100020000C9465000C9465000C9465000C946500BC
:100030000C9465000C9465000C9465000C946500AC
:100040000C9465000C9465000C9465000C9465009C
:100050000C9465000C9465000C9465000C9465008C
:100060000C9465000C9465000C9465000C9465007C
:100070000C9465000C9465000C9465000C9465006C
:100080000C9465000C9465000C94650011241FBE4F
:10009000CFEFD0E4DEBFCDBF11E0A0E0B1E0ECECEB
:1000A000F1E000E00BBF02C007900D92AE30B10747
:1000B000D9F711E0AEE0B1E001C01D92A031B10767
:1000C000E1F70E94B5000C94E4000C940000CF937B
:1000D000DF9300D01F92CDB7DEB789837B836A831D
:1000E00089818A3031F48A819B81BC018DE00E9434
:1000F000670080EC90E0FC018081882F90E08072A6
:1001000099270097B1F386EC90E02981FC012083C8
:1001100080E090E00F900F900F90DF91CF910895C5
:10012000CF93DF93CDB7DEB780910E0190910F0191
:10013000009731F485E290E020EFFC01208305C0B8
:1001400010920F0110920E01000080910E0190910B
:100150000F01009709F006C085E290E020EFFC0156
:1001600020830000DF91CF910895CF93DF93CDB727
:10017000DEB781E290E0FC01108282E290E02FEF96
:10018000FC01208384E290E02FEFFC01208385E2D4
:1001900090E0FC01108287E290E02FEFFC012083C9
:1001A00088E290E0FC0110828AE290E02FEFFC01EF
:1001B00020838BE290E0FC01108210920F011092DC
:0C01C0000E010E949000FDCFF894FFCFCC
:0E01CC000000000200000000670000000000BC
:00000001FF
