:100000000C9450000C946F000C946F000C946F00D3
:100010000C946F000C946F000C946F000C946F00A4
:100020000C946F000C946F000C946F000C946F0094
:100030000C946F000C94AD000C946F000C946F0046
:100040000C946F000C946F000C946F000C946F0074
:100050000C946F000C946F000C946F000C946F0064
:100060000C946F000C946F000C946F000C946F0054
:100070000C946F000C946F000C946F000C946F0044
:100080000C946F000C946F000C946F001D01240100
:100090003E014901660182018D01A901C401D70118
:1000A00011241FBECFEFD0E4DEBFCDBF11E0A0E032
:1000B000B1E0EEE4F4E000E00BBF02C007900D9267
:1000C000A231B107D9F721E0A2E1B1E001C01D9250
:1000D000AA31B207E1F70E9402020C9425020C94A7
:1000E0000000CF93C82F8A3019F48DE00E94710070
:1000F0008091C00085FFFCCFC093C60080E090E0F7
:10010000CF9108958BE0809381008DE790E09093EC
:1001100089008093880082E080936F0010928500B0
:100120001092840080910E0190910F01A091100116
:10013000B09111018093130190931401A0931501C4
:10014000B09316018FB780688FBF08951092810019
:10015000089581E08093170108951F920F920FB6C2
:100160000F9211240BB60F922F933F934F935F93EF
:100170006F937F938F939F93AF93BF93EF93FF936F
:100180008091130190911401A0911501B091160175
:100190000197A109B1098093130190931401A093D1
:1001A0001501B0931601892B8A2B8B2B91F40E9499
:1001B000A90080910E0190910F01A0911001B091C2
:1001C00011018093130190931401A0931501B09332
:1001D0001601FF91EF91BF91AF919F918F917F9108
:1001E0006F915F914F913F912F910F900BBE0F90A8
:1001F0000FBE0F901F90189560930E0170930F0122
:100200008093100190931101609313017093140176
:100210008093150190931601089580B18095809385
:100220001201E0911801F0911901EA30F10508F08E
:10023000C4C0EA5BFF4F0C941C0281E090E09093F5
:10024000190180931801B9C08370813039F482E0BC
:1002500090E09093190180931801AFC0823039F477
:1002600085E090E09093190180931801A6C081E089
:1002700090E090931901809318019FC083708130A2
:1002800009F09BC083E090E09093190180931801DE
:1002900094C08370813039F483E090E09093190129
:1002A000809318018AC0811107C084E090E0909388
:1002B00019018093180181C0833009F07EC088E065
:1002C00090E0909319018093180177C0837039F4FE
:1002D00084E090E090931901809318016EC0813002
:1002E00039F482E090E0909319018093180165C081
:1002F000823009F062C085E090E09093190180930C
:1003000018015BC08370823009F057C086E090E02E
:10031000909319018093180150C08370823039F492
:1003200086E090E0909319018093180146C08111F6
:1003300007C087E090E090931901809318013DC0B9
:100340008330D9F588E090E09093190180931801EB
:1003500034C0837039F487E090E090931901809362
:1003600018012BC0823039F485E090E09093190198
:100370008093180122C0813001F582E090E09093D3
:1003800019018093180119C08370813039F488E015
:1003900090E090931901809318010FC081110DC056
:1003A00089E090E0909319018093180106C081E0E4
:1003B00090E0909319018093180180911801909119
:1003C00019018230910569F018F4019739F0089508
:1003D0008530910569F0099791F0089587E085B916
:1003E000089583B1893069F083B18F5F85B908952D
:1003F00083B1882331F083B1815085B9089587E0B6
:1004000085B9089511B88FEF82B984B915B868EE2F
:1004100073E080E090E00E94FC000E948200109255
:100420001901109218010E940D0180911701882373
:10043000E1F310921701F7CFEE0FFF1F0024001C0D
:0E0440000BBE0790F691E02D0994F894FFCFC3
:10044E00000000020000000071000000000001002A
:02045E0000009C
:00000001FF
