:100000000C944D000C946C000C946C000C946C00DF
:100010000C946C000C946C000C946C000C946C00B0
:100020000C946C000C946C000C946C000C946C00A0
:100030000C946C000C94AA000C946C000C946C0052
:100040000C946C000C946C000C946C000C946C0080
:100050000C946C000C946C000C946C000C946C0070
:100060000C946C000C946C000C946C000C946C0060
:100070000C946C000C946C000C946C000C946C0050
:100080000C946C000C946C000C946C001A0121010F
:10009000340147015A016C017E0111241FBECFEFCC
:1000A000D0E4DEBFCDBF11E0A0E0B1E0E4ECF3E0CE
:1000B00000E00BBF02C007900D92A231B107D9F743
:1000C00021E0A2E1B1E001C01D92AC31B207E1F73D
:1000D0000E94BA010C94E0010C940000CF93C82F49
:1000E0008A3019F48DE00E946E008091C00085FF77
:1000F000FCCFC093C60080E090E0CF9108958BE0E4
:10010000809381008DE790E0909389008093880030
:1001100082E080936F00109285001092840080919D
:100120000E0190910F01A0911001B09111018093E7
:10013000150190931601A0931701B09318018FB782
:1001400080688FBF089510928100089581E08093A8
:10015000190108951F920F920FB60F9211240BB63A
:100160000F922F933F934F935F936F937F938F9350
:100170009F93AF93BF93EF93FF938091150190915D
:100180001601A0911701B09118010197A109B109B9
:100190008093150190931601A0931701B093180155
:1001A000892B8A2B8B2B91F40E94A60080910E0143
:1001B00090910F01A0911001B09111018093150150
:1001C00090931601A0931701B0931801FF91EF913E
:1001D000BF91AF919F918F917F916F915F914F915F
:1001E0003F912F910F900BBE0F900FBE0F901F905D
:1001F000189560930E0170930F01809310019093F6
:10020000110160931501709316018093170190936B
:100210001801089580B1809580931301E0911A012F
:10022000F0911B01E730F10508F07AC0EA5BFF4F5F
:100230000C94D70181E090E090931B0180931A0108
:1002400073C0811107C082E090E090931B018093FE
:100250001A016AC0882309F467C085E090E0909392
:100260001B0180931A0160C0811107C083E090E0F8
:1002700090931B0180931A0157C0882309F454C03E
:1002800085E090E090931B0180931A014DC081118D
:1002900007C084E090E090931B0180931A0144C052
:1002A000882309F441C085E090E090931B0180937E
:1002B0001A013AC0811107C081E090E090931B01C0
:1002C00080931A0131C0882379F185E090E0909302
:1002D0001B0180931A0128C0811107C086E090E0BD
:1002E00090931B0180931A011FC08823E9F085E0D9
:1002F00090E090931B0180931A0116C0811107C0F2
:1003000086E090E090931B0180931A010DC081302C
:1003100059F481E090E090931B0180931A0104C08E
:1003200010921B0110921A0180911A0190911B01E9
:100330008230910599F028F4009749F0019751F027
:1003400008958330910571F0049781F0089510921B
:100350001401089581E080931401089582E0809350
:100360001401089584E080931401089582E080933D
:100370001401089511B88FEF82B984B915B868EBEC
:100380007BE080E090E00E94F9000E947F001092E4
:100390001B0110921A010E940A0180911901882301
:1003A000E1F3109219018091140185B9F4CFEE0F99
:1003B000FF1F0024001C0BBE0790F691E02D09944E
:0403C000F894FFCFDF
:1003C40000000002000000006E00000000000100B8
:0203D400000027
:00000001FF
