:100000000C9446000C9465000C9465000C946500FB
:100010000C9465000C9465000C9465000C946500CC
:100020000C9465000C9465000C9465000C946500BC
:100030000C9465000C94A3000C9465000C9465006E
:100040000C9465000C9465000C9465000C9465009C
:100050000C9465000C9465000C9465000C9465008C
:100060000C9465000C9465000C9465000C9465007C
:100070000C9465000C9465000C9465000C9465006C
:100080000C9465000C9465000C94650011241FBE4F
:10009000CFEFD0E4DEBFCDBF11E0A0E0B1E0E4E7F8
:1000A000F3E000E00BBF02C007900D92A231B10750
:1000B000D9F721E0A2E1B1E001C01D92A532B2075B
:1000C000E1F70E9488010C94B8010C940000CF93D2
:1000D000C82F8A3019F48DE00E9467008091C0001B
:1000E00085FFFCCFC093C60080E090E0CF910895DB
:1000F0008BE0809381008DE790E09093890080935E
:10010000880082E080936F00109285001092840036
:100110008091000190910101A0910201B091030131
:100120008093120190931301A0931401B0931501D1
:100130008FB780688FBF089510928100089581E085
:100140008093160108951F920F920FB60F921124FB
:100150000BB60F922F933F934F935F936F937F93C1
:100160008F939F93AF93BF93EF93FF93809112016F
:1001700090911301A0911401B09115010197A1096B
:10018000B1098093120190931301A0931401B093CD
:100190001501892B8A2B8B2B91F40E949F00809153
:1001A000000190910101A0910201B091030180939F
:1001B000120190931301A0931401B0931501FF91C4
:1001C000EF91BF91AF919F918F917F916F915F91CF
:1001D0004F913F912F910F900BBE0F900FBE0F903C
:1001E0001F901895609300017093010180930201A4
:1001F0009093030160931201709313018093140193
:1002000090931501089580911D0190911E01892BF5
:1002100021F010921E0110921D0180911D019091FC
:100220001E01892BB9F48091190190911A01019650
:1002300090931A01809319010A9754F095B181E0C7
:100240008927817085B910921A01109219010895B9
:1002500085B115B8089580912101909122010097F0
:1002600019F0019781F021C080B1882339F081E035
:1002700090E090932201809321011BC010922201F3
:100280001092210116C080911701909118010297D8
:1002900029F410922201109221010BC081E090E01C
:1002A000909322018093210104C0109222011092A8
:1002B00021018091210190912201009719F001976D
:1002C00021F0089585B115B8089580911701909196
:1002D00018010196909318018093170182E085B967
:1002E0000895089580911F0190912001892B21F09C
:1002F0001092200110921F01089580911B0190918E
:100300001C01892B21F010921C0110921B010895F1
:1003100011B88FEF82B984B915B864E670E080E057
:1003200090E00E94F2000E94780010921E0110924C
:100330001D011092220110922101109224011092AD
:1003400023011092200110921F0110921C011092A3
:100350001B010E9403010E942B010E9472010E9456
:100360007D01809116018823E1F310921601F1CFEF
:04037000F894FFCF2F
:10037400010000000000000200000000670000000F
:02038400000077
:00000001FF
