:100000000C9446000C9465000C9465000C946500FB
:100010000C9465000C9465000C9465000C946500CC
:100020000C9465000C9465000C9465000C946500BC
:100030000C9465000C9492000C9465000C9465007F
:100040000C9465000C9465000C9465000C9465009C
:100050000C9465000C9465000C9465000C9465008C
:100060000C9465000C9465000C9465000C9465007C
:100070000C9465000C9465000C9465000C9465006C
:100080000C9465000C9465000C94650011241FBE4F
:10009000CFEFD0E4DEBFCDBF11E0A0E0B1E0E8E7F4
:1000A000F3E000E00BBF02C007900D92A430B1074F
:1000B000D9F721E0A4E0B1E001C01D92A131B2075F
:1000C000E1F70E9475010C94BA010C9400008BE0DA
:1000D000809381008DE790E0909389008093880061
:1000E00082E080936F0010928500109284008091CE
:1000F000000190910101A0910201B0910301809350
:10010000060190930701A0930801B09309018FB7EE
:1001100080688FBF089510928100089581E08093D8
:100120000A0108951F920F920FB60F9211240BB679
:100130000F922F933F934F935F936F937F938F9380
:100140009F93AF93BF93EF93FF938091060190919C
:100150000701A0910801B09109010197A109B10916
:100160008093060190930701A0930801B0930901C1
:10017000892B8A2B8B2B91F40E948E008091000199
:1001800090910101A0910201B091030180930601B9
:1001900090930701A0930801B0930901FF91EF919B
:1001A000BF91AF919F918F917F916F915F914F918F
:1001B0003F912F910F900BBE0F900FBE0F901F908D
:1001C0001895609300017093010180930201909350
:1001D00003016093060170930701809308019093D7
:1001E0000901089580910D0190910E0181309105D2
:1001F00071F030F08230910589F00397B1F01CC0A6
:1002000081E090E090930E0180930D0119C082E08F
:1002100090E090930E0180930D0112C083E090E076
:1002200090930E0180930D010BC081E090E09093BC
:100230000E0180930D0104C010920E0110920D0169
:1002400080910D0190910E018230910549F083302B
:10025000910551F0019759F481E0809305010895CB
:1002600082E080930501089584E08093050108955C
:1002700080910B0190910C018130910559F018F09B
:10028000029779F014C081E090E090930C01809384
:100290000B010DC082E090E090930C0180930B0164
:1002A00006C081E090E090930C0180930B01809157
:1002B0000B0190910C018130910519F0029721F00A
:1002C000089510920401089588E080930401089530
:1002D00080910F0190911001892B31F490910501CB
:1002E00080910401892B85B9089564E670E080E06F
:1002F00090E00E94E1000E94670010920E011092AF
:100300000D0110920C0110920B011092100110922D
:100310000F01812C912C5401C12CD12C76018CE23F
:10032000C81681E0D806E104F10428F00E94F2002A
:10033000C12CD12C760188EE881683E09806A104A2
:10034000B10428F00E943801812C912C54010E94A4
:10035000680180910A018823E1F310920A0184E682
:10036000C80ED11CE11CF11C84E6880E911CA11C56
:08037000B11CD5CFF894FFCFBA
:040378000100000080
:00000001FF
