:100000000C9450000C9462000C9462000C946200FA
:100010000C9462000C9462000C9462000C946200D8
:100020000C9462000C9462000C9462000C946200C8
:100030000C9462000C9462000C9462000C946200B8
:100040000C9462000C9462000C9462000C946200A8
:100050000C9462000C9462000C9462000C94620098
:100060000C9462000C9462000C9462000C94620088
:100070000C9462000C9462000C9462000C94620078
:100080000C9462000C9462000C94620074007B007B
:100090009500A000C300DF00EA0006012101340141
:1000A00011241FBECFEFD0E4DEBFCDBF21E0A0E022
:1000B000B1E001C01D92A330B207E1F70E946201D6
:1000C0000C9477010C94000080B18095809300011E
:1000D000E0910101F0910201EA30F10508F0CAC097
:1000E000EA5BFF4F0C946E0181E090E09093020177
:1000F00080930101BFC08370813039F482E090E0C9
:100100009093020180930101B5C0823039F485E0FB
:1001100090E09093020180930101ACC081E090E0F7
:100120009093020180930101A5C08370813009F092
:10013000A1C083E090E090930201809301019AC0F6
:100140008370813039F483E090E0909302018093D2
:10015000010190C0811107C084E090E090930201FA
:100160008093010187C0833039F488E090E0909358
:100170000201809301017EC085B1893009F07AC007
:100180001092000177C0837039F484E090E090937E
:100190000201809301016EC0813039F482E090E069
:1001A000909302018093010165C0823009F062C022
:1001B00085E090E090930201809301015BC0837021
:1001C000823009F057C086E090E09093020180935E
:1001D000010150C08370823039F486E090E0909342
:1001E00002018093010146C0811107C087E090E0C1
:1001F00090930201809301013DC08330D9F588E0DE
:1002000090E0909302018093010134C0837039F42F
:1002100087E090E090930201809301012BC082302F
:1002200039F485E090E0909302018093010122C0AF
:10023000813001F582E090E090930201809301010A
:1002400019C08370813039F488E090E09093020106
:10025000809301010FC081110DC089E090E090935F
:1002600002018093010106C081E090E090930201B9
:1002700080930101809101019091020182309105EA
:1002800061F018F4019739F008958530910589F0EF
:100290000997B1F0089515B8089583B18F3321F00F
:1002A00083B18F5F85B9089583B18F3350F015B84E
:1002B000089583B1882329F086B1815085B90895C6
:1002C00018B8089511B88FEF82B984B915B8109293
:1002D0000201109201010E946400FDCFEE0FFF1F8A
:1002E0000024001C0BBE0790F691E02D0994F894B1
:0202F000FFCF3E
:00000001FF
