:100000000C9450000C9462000C9462000C946200FA
:100010000C9462000C9462000C9462000C946200D8
:100020000C9462000C9462000C9462000C946200C8
:100030000C9462000C9462000C9462000C946200B8
:100040000C9462000C9462000C9462000C946200A8
:100050000C9462000C9462000C9462000C94620098
:100060000C9462000C9462000C9462000C94620088
:100070000C9462000C9462000C9462000C94620078
:100080000C9462000C9462000C94620074007B007B
:100090009500A000BD00D900E40000011B012E0165
:1000A00011241FBECFEFD0E4DEBFCDBF21E0A0E022
:1000B000B1E001C01D92A330B207E1F70E945701E1
:1000C0000C946C010C94000080B180958093000129
:1000D000E0910101F0910201EA30F10508F0C4C09D
:1000E000EA5BFF4F0C94630181E090E09093020182
:1000F00080930101B9C08370813039F482E090E0CF
:100100009093020180930101AFC0823039F485E001
:1001100090E09093020180930101A6C081E090E0FD
:1001200090930201809301019FC08370813009F098
:100130009BC083E090E0909302018093010194C002
:100140008370813039F483E090E0909302018093D2
:1001500001018AC0811107C084E090E09093020100
:100160008093010181C0833009F07EC088E090E077
:10017000909302018093010177C0837039F484E089
:1001800090E090930201809301016EC0813039F4B8
:1001900082E090E0909302018093010165C082307B
:1001A00009F062C085E090E0909302018093010124
:1001B0005BC08370823009F057C086E090E0909376
:1001C00002018093010150C08370823039F486E0CF
:1001D00090E0909302018093010146C0811107C015
:1001E00087E090E090930201809301013DC083304D
:1001F000D9F588E090E0909302018093010134C02A
:10020000837039F487E090E09093020180930101BC
:100210002BC0823039F485E090E090930201809306
:10022000010122C0813001F582E090E0909302014B
:100230008093010119C08370813039F488E090E027
:1002400090930201809301010FC081110DC089E0DC
:1002500090E0909302018093010106C081E090E05C
:10026000909302018093010180910101909102011C
:100270008230910561F018F4019739F008958530C6
:10028000910561F0099789F0089518B8089586B12D
:10029000893061F086B18F5F88B9089586B188236F
:1002A00029F086B1815088B9089518B8089511B819
:1002B0008FEF82B987B918B810920201109201012C
:1002C0000E946400FDCFEE0FFF1F0024001C0BBE38
:0C02D0000790F691E02D0994F894FFCF00
:00000001FF
