:100000000C9446000C945D000C945D000C945D0013
:100010000C945D000C945D000C945D000C945D00EC
:100020000C945D000C945D000C945D000C945D00DC
:100030000C945D000C945D000C945D000C945D00CC
:100040000C945D000C945D000C945D000C945D00BC
:100050000C945D000C945D000C945D000C945D00AC
:100060000C945D000C945D000C945D000C945D009C
:100070000C945D000C945D000C945D000C945D008C
:100080000C945D000C945D000C945D0011241FBE67
:10009000CFEFD0E4DEBFCDBF11E0A0E0B1E0E2E5FC
:1000A000F1E000E00BBF02C007900D92AE30B10747
:1000B000D9F70E9470000C94A7000C940000CF9315
:1000C000C82F8A3019F48DE00E945F008091C00033
:1000D00085FFFCCFC093C60080E090E0CF910895EB
:1000E00011B88FEF82B987B918B818B880B18F3FAF
:1000F00011F490E498B98C3711F490E798B9883FDF
:1001000011F49CE398B99FEF980F923010F490E6A9
:1001100098B99DEF980F923010F490E798B99BEF43
:10012000980F923010F498E398B999EF980F9330A4
:1001300010F49CE398B996EF980F933010F49EE377
:1001400098B98D50833088F68FE388B9CECFF89474
:02015000FFCFDF
:0E01520000000002000000005F00000000003E
:00000001FF
