:100000000C9446000C9450000C9450000C9450003A
:100010000C9450000C9450000C9450000C94500020
:100020000C9450000C9450000C9450000C94500010
:100030000C9450000C9450000C9450000C94500000
:100040000C9450000C9450000C9450000C945000F0
:100050000C9450000C9450000C9450000C945000E0
:100060000C9450000C9450000C9450000C945000D0
:100070000C9450000C9450000C9450000C945000C0
:100080000C9450000C9450000C94500011241FBE8E
:10009000CFEFD0E4DEBFCDBF0E9458000C94AE007D
:1000A0000C940000EAE7F0E08081806E8083089580
:1000B00011B88FEF82B984B915B88AB91BB80E94FC
:1000C00052008091780090917900892B11F415B835
:1000D000F8CF8091780090917900409718F481E0F2
:1000E00085B9EFCF80917800909179004F9718F4FF
:1000F00083E085B9E6CF80917800909179008E9762
:1001000018F487E085B9DDCF80917800909179006F
:10011000CD9718F48FE085B9D4CF80917800909175
:1001200079008C34910518F48FE185B9CACF80919C
:100130007800909179008B35910518F48FE385B99B
:10014000C0CF80917800909179008A36910518F49B
:100150008FE785B9B6CF8FEF85B9B3CFF894FFCFCE
:00000001FF
