:100000000C9446000C9465000C9465000C946500FB
:100010000C9465000C9465000C9465000C946500CC
:100020000C9465000C9465000C9465000C946500BC
:100030000C9465000C940B010C9465000C94650005
:100040000C9465000C9465000C9465000C9465009C
:100050000C9465000C9465000C9465000C9465008C
:100060000C9465000C9465000C9465000C9465007C
:100070000C9465000C9465000C9465000C9465006C
:100080000C9465000C9465000C94650011241FBE4F
:10009000CFEFD0E4DEBFCDBF11E0A0E0B1E0E6E5F8
:1000A000F5E000E00BBF02C007900D92A430B1074D
:1000B000D9F721E0A4E0B1E001C01D92AF30B20752
:1000C000E1F70E9480020C94A9020C94000040E029
:1000D00050E00CC000002F5F3F4F02C020E030E036
:1000E000273063E03607B4F34F5F5F4F4817590777
:1000F000ACF308959BB19F7B9BB988B98BB18068A5
:100100008BB900008BB18F778BB982E090E00E94B1
:100110006700089581E00E947A000895813120F4FB
:1001200081580E947A00089581550E947A000895AE
:1001300084E690E00E94670088E30E947A0086E0EF
:100140000E947A008FE00E947A0081E00E947A008B
:100150008AE090E00E94670008959BB190649BB98B
:1001600088B98BB180688BB900008BB18F778BB960
:1001700081E090E00E9467000895EF92FF920F9354
:100180001F93CF93DF93182FEB010E948A000EC0BC
:1001900001E0010F812F0E948E007E018FEFE81A8F
:1001A000F80A88810E94AD00102FE7018881811133
:1001B000EFCFDF91CF911F910F91FF90EF900895B6
:1001C0008BE0809381008DE790E09093890080938D
:1001D000880082E080936F00109285001092840066
:1001E0008091000190910101A0910201B091030161
:1001F0008093060190930701A0930801B093090131
:100200008FB780688FBF089510928100089581E0B4
:1002100080930A0108951F920F920FB60F92112436
:100220000BB60F922F933F934F935F936F937F93F0
:100230008F939F93AF93BF93EF93FF9380910601AA
:1002400090910701A0910801B09109010197A109BE
:10025000B1098093060190930701A0930801B09320
:100260000901892B8A2B8B2B91F40E940701809125
:10027000000190910101A0910201B09103018093CE
:10028000060190930701A0930801B0930901FF9123
:10029000EF91BF91AF919F918F917F916F915F91FE
:1002A0004F913F912F910F900BBE0F900FBE0F906B
:1002B0001F901895609300017093010180930201D3
:1002C00090930301609306017093070180930801E6
:1002D00090930901089590B181E0892781708093FE
:1002E0000E0190B19095927090930D0120910B01A9
:1002F00030910C012230310509F45EC038F421152B
:10030000310571F021303105D1F1CCC024303105F7
:1003100071F008F4C0C02530310509F46AC0C2C0CC
:1003200084E090E090930C0180930B01BFC0882380
:1003300049F0992339F083E090E090930C01809389
:100340000B01B4C0882349F0911107C081E090E00F
:1003500090930C0180930B01A9C0811109C09923CE
:1003600039F082E090E090930C0180930B019EC0E5
:1003700084E090E090930C0180930B0197C0882358
:1003800049F0911107C085E090E090930C018093B3
:100390000B018CC0882349F0992339F083E090E069
:1003A00090930C0180930B0181C084E090E09093C6
:1003B0000C0180930B017AC0811109C0992339F097
:1003C00085E090E090930C0180930B016FC088232F
:1003D00049F0992339F083E090E090930C018093E9
:1003E0000B0164C084E090E090930C0180930B01BA
:1003F0005DC0882349F0992339F083E090E0909321
:100400000C0180930B0152C08823F1F091111CC0A4
:100410009091040189E3989F812D11248695282FBE
:10042000220F220F220F820F981307C081E090E065
:1004300090930C0180930B0139C085E090E090937C
:100440000C0180930B0132C081111EC09923E1F091
:100450009091040189E3989F812D11248695282F7E
:10046000220F220F220F820F981307C082E090E024
:1004700090930C0180930B0119C085E090E090935C
:100480000C0180930B0112C084E090E090930C016A
:1004900080930B010BC084E090E090930C0180935B
:1004A0000B0104C010920C0110920B0180910B0102
:1004B00090910C018230910591F018F4019739F078
:1004C00008958330910599F00597A1F008958091E2
:1004D00005018930A0F48F5F809305010895809114
:1004E0000501882361F081508093050108951092E1
:1004F00005010895809104018F5F809304010895A0
:1005000011B88FEF82B987B918B88AB91BB86DE7EF
:1005100070E080E090E00E945A010E94E0000E949A
:1005200098000E948A0010920C0110920B010E9408
:100530006B0181E00E948E008091050190E0C096E1
:100540000E94AD0080910A018823E1F310920A0114
:06055000EECFF894FFCF8E
:0405560001000000A0
:00000001FF
