:100000000C9446000C9458000C9458000C94580022
:100010000C9458000C9458000C9458000C94580000
:100020000C9458000C9458000C9458000C945800F0
:100030000C9458000C9458000C9458000C945800E0
:100040000C9458000C9458000C9458000C945800D0
:100050000C9458000C9458000C9458000C945800C0
:100060000C9458000C9458000C9458000C945800B0
:100070000C9458000C9458000C9458000C945800A0
:100080000C9458000C9458000C94580011241FBE76
:10009000CFEFD0E4DEBFCDBF21E0A0E0B1E001C0F2
:1000A0001D92A930B207E1F70E94AE010C945203F1
:1000B0000C940000CF92DF92EF92FF926B017C01D3
:1000C0006091000170910101809102019091030102
:1000D000A70196010E94BE01882309F458C020E0C0
:1000E00030E0A901C701B6010E94BE01811106C01E
:1000F000E1E9F0E080818870808305C0E1E9F0E00B
:1001000080818360808328E539E344E75FE3C701AA
:10011000B6010E94BE0188233CF48FEF9FEF9093BD
:1001200099008093980027C020E034E244EF56E421
:10013000C701B6010E94E00218162CF41092990033
:100140001092980018C020E030E040E053E4C7016E
:10015000B6010E94E5029B01AC0160E074E284EF0D
:100160009AE40E94C3010E943502615071097093A4
:100170009900609398001092950010929400C0929C
:100180000001D0920101E0920201F0920301FF9080
:10019000EF90DF90CF90089580E4809390008BE003
:1001A0008093910060E070E0CB010E945A000895B6
:1001B0001092900010929100089589B180958078F6
:1001C0008093060126B191E09227917090930801E7
:1001D00026B120952270209307014091040150918F
:1001E000050142305105D1F138F44115510569F04E
:1001F0004130510589F07AC04330510509F446C0B9
:100200004430510509F45AC071C081E090E09093E8
:100210000501809304016EC0882339F082E090E0EC
:10022000909305018093040165C0992339F083E020
:1002300090E090930501809304015CC0222339F083
:1002400084E090E0909305018093040153C081E025
:1002500090E090930501809304014CC0882321F025
:10026000911104C0211102C0811107C081E090E00A
:1002700090930501809304013DC08823D9F182E069
:1002800090E0909305018093040134C0992321F0FC
:10029000811104C0211102C0911107C081E090E0DA
:1002A000909305018093040125C0992319F183E0FF
:1002B00090E090930501809304011CC0222321F05B
:1002C000811104C0911102C0211107C081E090E0AA
:1002D00090930501809304010DC0222359F084E01E
:1002E00090E0909305018093040104C010920501F1
:1002F00010920401809104019091050182309105D2
:10030000C1F028F4009749F0019769F0089583300F
:100310009105B1F00497D9F0089560E070E0CB0149
:100320000E945A00089560E070E0CB010E945A00DC
:10033000089564EA70ED82E893E40E945A000895FB
:100340006BE774ED82E993E40E945A00089564EA31
:1003500070ED84EA93E40E945A0008958FEF84B907
:1003600015B817B888B91AB88BB90E94CC0010928A
:100370000501109204010E94DD00FDCF0E946B0276
:1003800008F481E008950E94D7010C94A6020E940F
:100390009F0258F00E94980240F029F45F3F29F034
:1003A0000C948F0251110C94DA020C9495020E9465
:1003B000B70268F39923B1F3552391F3951B550BBD
:1003C000BB27AA2762177307840738F09F5F5F4F28
:1003D000220F331F441FAA1FA9F335D00E2E3AF067
:1003E000E0E832D091505040E695001CCAF72BD07F
:1003F000FE2F29D0660F771F881FBB1F26173707D0
:100400004807AB07B0E809F0BB0B802DBF01FF2701
:1004100093585F4F3AF09E3F510578F00C948F024D
:100420000C94DA025F3FE4F3983ED4F38695779517
:100430006795B795F7959F5FC9F7880F911D9695BA
:10044000879597F90895E1E0660F771F881FBB1F16
:10045000621773078407BA0720F0621B730B840BC3
:10046000BA0BEE1F88F7E09508950E943C0268944D
:10047000B1110C94DA0208950E94BF0288F09F57D0
:1004800098F0B92F9927B751B0F0E1F0660F771FB8
:10049000881F991F1AF0BA95C9F714C0B13091F0AE
:1004A0000E94D902B1E008950C94D902672F782FE9
:1004B0008827B85F39F0B93FCCF386957795679573
:1004C000B395D9F73EF490958095709561957F4FDF
:1004D0008F4F9F4F0895990F0008550FAA0BE0E822
:1004E000FEEF16161706E807F907C0F012161306F6
:1004F000E407F50798F0621B730B840B950B39F436
:100500000A2661F0232B242B252B21F408950A269B
:1005100009F4A140A6958FEF811D811D089597F9DB
:100520009F6780E870E060E008959FEF80EC089599
:1005300000240A94161617061806090608950024C2
:100540000A9412161306140605060895092E03943C
:10055000000C11F4882352F0BB0F40F4BF2B11F4B0
:1005600060FF04C06F5F7F4F8F4F9F4F089557FD0F
:100570009058440F551F59F05F3F71F04795880F11
:1005800097FB991F61F09F3F79F0879508951216A8
:1005900013061406551FF2CF4695F1DF08C0161654
:1005A00017061806991FF1CF869571056105089405
:1005B0000895E894BB2766277727CB0197F908951C
:1005C0000E946B0208F48FEF08950E94F8020C94C9
:1005D000A6020E94980238F00E949F0220F0952304
:1005E00011F00C948F020C94950211240C94DA02F1
:1005F0000E94B70270F3959FC1F3950F50E0551F0D
:10060000629FF001729FBB27F00DB11D639FAA2767
:10061000F00DB11DAA1F649F6627B00DA11D661FB6
:10062000829F2227B00DA11D621F739FB00DA11DD7
:10063000621F839FA00D611D221F749F3327A00D91
:10064000611D231F849F600D211D822F762F6A2F2D
:1006500011249F5750409AF0F1F088234AF0EE0F92
:10066000FF1FBB1F661F771F881F91505040A9F7BF
:100670009E3F510580F00C948F020C94DA025F3F8C
:10068000E4F3983ED4F3869577956795B795F795FB
:10069000E7959F5FC1F7FE2B880F911D9695879573
:0806A00097F90895F894FFCFCB
:00000001FF
