:100000000C9446000C9458000C9458000C94580022
:100010000C9458000C9458000C9458000C94580000
:100020000C9458000C9458000C9458000C945800F0
:100030000C9458000C9458000C9458000C945800E0
:100040000C9458000C9458000C9458000C945800D0
:100050000C9458000C9458000C9458000C945800C0
:100060000C9458000C9458000C9458000C945800B0
:100070000C9458000C9458000C9458000C945800A0
:100080000C9458000C9458000C94580011241FBE76
:10009000CFEFD0E4DEBFCDBF21E0A0E0B1E001C0F2
:1000A0001D92A930B207E1F70E94FC000C94A00257
:1000B0000C940000CF92DF92EF92FF926B017C01D3
:1000C0006091000170910101809102019091030102
:1000D000A70196010E940C01882309F458C020E072
:1000E00030E0A901C701B6010E940C01811106C0D0
:1000F000E1E9F0E080818870808305C0E1E9F0E00B
:1001000080818360808328E539E344E75FE3C701AA
:10011000B6010E940C0188233CF48FEF9FEF90936F
:1001200099008093980027C020E034E244EF56E421
:10013000C701B6010E942E0218162CF410929900E5
:100140001092980018C020E030E040E053E4C7016E
:10015000B6010E9433029B01AC0160E074E284EFBF
:100160009AE40E9411010E94830161507109709309
:100170009900609398001092950010929400C0929C
:100180000001D0920101E0920201F0920301FF9080
:10019000EF90DF90CF90089580E4809390008BE003
:1001A0008093910060E070E0CB010E945A000895B6
:1001B0001092900010929100089589B180958078F6
:1001C0008093060126B191E09227917090930801E7
:1001D00096B190959270909307012091040130910F
:1001E0000501232B41F4882331F064EA70ED82E8A5
:1001F00093E40E945A0008958FEF84B915B817B898
:1002000088B91AB88BB90E94CC00109205011092DF
:1002100004010E94DD00FDCF0E94B90108F481E0D5
:1002200008950E9425010C94F4010E94ED0158F0FC
:100230000E94E60140F029F45F3F29F00C94DD01B3
:1002400051110C9428020C94E3010E94050268F3FA
:100250009923B1F3552391F3951B550BBB27AA277F
:1002600062177307840738F09F5F5F4F220F331FB9
:10027000441FAA1FA9F335D00E2E3AF0E0E832D081
:1002800091505040E695001CCAF72BD0FE2F29D084
:10029000660F771F881FBB1F261737074807AB0756
:1002A000B0E809F0BB0B802DBF01FF2793585F4FCB
:1002B0003AF09E3F510578F00C94DD010C94280231
:1002C0005F3FE4F3983ED4F3869577956795B795AD
:1002D000F7959F5FC9F7880F911D9695879597F9B8
:1002E0000895E1E0660F771F881FBB1F6217730731
:1002F0008407BA0720F0621B730B840BBA0BEE1F46
:1003000088F7E09508950E948A016894B1110C94D1
:10031000280208950E940D0288F09F5798F0B92F87
:100320009927B751B0F0E1F0660F771F881F991F2A
:100330001AF0BA95C9F714C0B13091F00E942702A3
:10034000B1E008950C942702672F782F8827B85FB3
:1003500039F0B93FCCF3869577956795B395D9F782
:100360003EF490958095709561957F4F8F4F9F4F8C
:100370000895990F0008550FAA0BE0E8FEEF161636
:100380001706E807F907C0F012161306E407F50789
:1003900098F0621B730B840B950B39F40A2661F0FD
:1003A000232B242B252B21F408950A2609F4A140A0
:1003B000A6958FEF811D811D089597F99F6780E8AD
:1003C00070E060E008959FEF80EC089500240A94A7
:1003D0001616170618060906089500240A94121620
:1003E0001306140605060895092E0394000C11F453
:1003F000882352F0BB0F40F4BF2B11F460FF04C000
:100400006F5F7F4F8F4F9F4F089557FD9058440F58
:10041000551F59F05F3F71F04795880F97FB991F63
:1004200061F09F3F79F08795089512161306140620
:10043000551FF2CF4695F1DF08C0161617061806AD
:10044000991FF1CF86957105610508940895E89488
:10045000BB2766277727CB0197F908950E94B9013A
:1004600008F48FEF08950E9446020C94F4010E9454
:10047000E60138F00E94ED0120F0952311F00C9474
:10048000DD010C94E30111240C9428020E94050262
:1004900070F3959FC1F3950F50E0551F629FF001D7
:1004A000729FBB27F00DB11D639FAA27F00DB11DF0
:1004B000AA1F649F6627B00DA11D661F829F222779
:1004C000B00DA11D621F739FB00DA11D621F839F00
:1004D000A00D611D221F749F3327A00D611D231FD6
:1004E000849F600D211D822F762F6A2F11249F5724
:1004F00050409AF0F1F088234AF0EE0FFF1FBB1F27
:10050000661F771F881F91505040A9F79E3F5105E5
:1005100080F00C94DD010C9428025F3FE4F3983ED8
:10052000D4F3869577956795B795F795E7959F5F8F
:10053000C1F7FE2B880F911D9695879597F9089521
:04054000F894FFCF5D
:00000001FF
