:100000000C9446000C9450000C9450000C9450003A
:100010000C9450000C9450000C9450000C94500020
:100020000C9450000C9450000C9450000C94500010
:100030000C9450000C9450000C9450000C94500000
:100040000C9450000C9450000C9450000C945000F0
:100050000C9450000C9450000C9450000C945000E0
:100060000C9450000C9450000C9450000C945000D0
:100070000C9450000C9450000C9450000C945000C0
:100080000C9450000C9450000C94500011241FBE8E
:10009000CFEFD0E4DEBFCDBF0E9458000C94B1007A
:1000A0000C940000EAE7F0E08081806E8083089580
:1000B00011B88FEF82B984B915B88AB91BB80E94FC
:1000C000520080917800909179008D9710F415B8C6
:1000D000F8CF8091780090917900C89718F481E06A
:1000E00085B9EFCF809178009091790082349105A5
:1000F00018F482E085B9E5CF80917800909179007D
:100100008C34910518F484E085B9DBCF80917800B8
:10011000909179008635910518F488E085B9D1CFA2
:1001200080917800909179008036910518F480E1F3
:1001300085B9C7CF80917800909179008A36910572
:1001400018F480E285B9BDCF809178009091790054
:100150008437910518F480E485B9B3CF80E885B978
:06016000B0CFF894FFCFC0
:00000001FF
